{
  "contractName": "ProductTracking",
  "abi": [
    {
      "inputs": [
        {
          "internalType": "uint256",
          "name": "",
          "type": "uint256"
        }
      ],
      "name": "products",
      "outputs": [
        {
          "internalType": "uint256",
          "name": "id",
          "type": "uint256"
        },
        {
          "internalType": "string",
          "name": "name",
          "type": "string"
        },
        {
          "internalType": "uint256",
          "name": "price",
          "type": "uint256"
        },
        {
          "internalType": "uint256",
          "name": "manufacturer_id",
          "type": "uint256"
        }
      ],
      "stateMutability": "view",
      "type": "function",
      "constant": true
    },
    {
      "inputs": [],
      "name": "test_variable",
      "outputs": [
        {
          "internalType": "string",
          "name": "",
          "type": "string"
        }
      ],
      "stateMutability": "view",
      "type": "function",
      "constant": true
    },
    {
      "inputs": [],
      "name": "test_function",
      "outputs": [
        {
          "internalType": "string",
          "name": "",
          "type": "string"
        }
      ],
      "stateMutability": "pure",
      "type": "function",
      "constant": true
    },
    {
      "inputs": [
        {
          "internalType": "uint256",
          "name": "_id",
          "type": "uint256"
        },
        {
          "internalType": "string",
          "name": "_name",
          "type": "string"
        },
        {
          "internalType": "uint256",
          "name": "_price",
          "type": "uint256"
        },
        {
          "internalType": "uint256",
          "name": "_manufacturer_id",
          "type": "uint256"
        }
      ],
      "name": "add_product",
      "outputs": [
        {
          "internalType": "uint256",
          "name": "",
          "type": "uint256"
        }
      ],
      "stateMutability": "nonpayable",
      "type": "function"
    },
    {
      "inputs": [
        {
          "internalType": "uint256",
          "name": "product_id",
          "type": "uint256"
        },
        {
          "internalType": "uint256",
          "name": "dealer_id",
          "type": "uint256"
        },
        {
          "internalType": "uint256",
          "name": "manufacturer_id",
          "type": "uint256"
        }
      ],
      "name": "add_dealer",
      "outputs": [
        {
          "internalType": "uint256",
          "name": "",
          "type": "uint256"
        }
      ],
      "stateMutability": "nonpayable",
      "type": "function"
    },
    {
      "inputs": [
        {
          "internalType": "uint256",
          "name": "_id",
          "type": "uint256"
        }
      ],
      "name": "get_product_info",
      "outputs": [
        {
          "components": [
            {
              "internalType": "uint256",
              "name": "id",
              "type": "uint256"
            },
            {
              "internalType": "string",
              "name": "name",
              "type": "string"
            },
            {
              "internalType": "uint256",
              "name": "price",
              "type": "uint256"
            },
            {
              "internalType": "uint256",
              "name": "manufacturer_id",
              "type": "uint256"
            },
            {
              "internalType": "uint256[]",
              "name": "dealers_passed",
              "type": "uint256[]"
            }
          ],
          "internalType": "struct ProductTracking.Product",
          "name": "",
          "type": "tuple"
        }
      ],
      "stateMutability": "view",
      "type": "function",
      "constant": true
    }
  ],
  "bytecode": "0x60806040526040518060400160405280601781526020017f5468697320697320612074657374207661726961626c65000000000000000000815250600090816200004a9190620002de565b5060006002553480156200005d57600080fd5b50620003c5565b600081519050919050565b7f4e487b7100000000000000000000000000000000000000000000000000000000600052604160045260246000fd5b7f4e487b7100000000000000000000000000000000000000000000000000000000600052602260045260246000fd5b60006002820490506001821680620000e657607f821691505b602082108103620000fc57620000fb6200009e565b5b50919050565b60008190508160005260206000209050919050565b60006020601f8301049050919050565b600082821b905092915050565b600060088302620001667fffffffffffffffffffffffffffffffffffffffffffffffffffffffffffffffff8262000127565b62000172868362000127565b95508019841693508086168417925050509392505050565b6000819050919050565b6000819050919050565b6000620001bf620001b9620001b3846200018a565b62000194565b6200018a565b9050919050565b6000819050919050565b620001db836200019e565b620001f3620001ea82620001c6565b84845462000134565b825550505050565b600090565b6200020a620001fb565b62000217818484620001d0565b505050565b5b818110156200023f576200023360008262000200565b6001810190506200021d565b5050565b601f8211156200028e57620002588162000102565b620002638462000117565b8101602085101562000273578190505b6200028b620002828562000117565b8301826200021c565b50505b505050565b600082821c905092915050565b6000620002b36000198460080262000293565b1980831691505092915050565b6000620002ce8383620002a0565b9150826002028217905092915050565b620002e98262000064565b67ffffffffffffffff8111156200030557620003046200006f565b5b620003118254620000cd565b6200031e82828562000243565b600060209050601f83116001811462000356576000841562000341578287015190505b6200034d8582620002c0565b865550620003bd565b601f198416620003668662000102565b60005b82811015620003905784890151825560018201915060208501945060208101905062000369565b86831015620003b05784890151620003ac601f891682620002a0565b8355505b6001600288020188555050505b505050505050565b610ef580620003d56000396000f3fe608060405234801561001057600080fd5b50600436106100625760003560e01c80633b17c112146100675780634eaf8b7c146100975780637acc0b20146100b5578063ba57f61b146100e8578063d1eb072014610118578063dbd1110f14610136575b600080fd5b610081600480360381019061007c9190610633565b610166565b60405161008e919061082b565b60405180910390f35b61009f6102bc565b6040516100ac9190610897565b60405180910390f35b6100cf60048036038101906100ca9190610633565b6102dc565b6040516100df94939291906108c8565b60405180910390f35b61010260048036038101906100fd9190610914565b610394565b60405161010f9190610967565b60405180910390f35b610120610405565b60405161012d9190610897565b60405180910390f35b610150600480360381019061014b9190610ab7565b610493565b60405161015d9190610967565b60405180910390f35b61016e610550565b60025482116102aa576000600160008481526020019081526020016000206040518060a0016040529081600082015481526020016001820180546101b190610b69565b80601f01602080910402602001604051908101604052809291908181526020018280546101dd90610b69565b801561022a5780601f106101ff5761010080835404028352916020019161022a565b820191906000526020600020905b81548152906001019060200180831161020d57829003601f168201915b5050505050815260200160028201548152602001600382015481526020016004820180548060200260200160405190810160405280929190818152602001828054801561029657602002820191906000526020600020905b815481526020019060010190808311610282575b5050505050815250509050809150506102b7565b6102b2610550565b809150505b919050565b6060604051806060016040528060308152602001610e9060309139905090565b600160205280600052604060002060009150905080600001549080600101805461030590610b69565b80601f016020809104026020016040519081016040528092919081815260200182805461033190610b69565b801561037e5780601f106103535761010080835404028352916020019161037e565b820191906000526020600020905b81548152906001019060200180831161036157829003601f168201915b5050505050908060020154908060030154905084565b6000816001600086815260200190815260200160002060030154036103f95760016000858152602001908152602001600020600401839080600181540180825580915050600190039060005260206000200160009091909190915055600190506103fe565b600090505b9392505050565b6000805461041290610b69565b80601f016020809104026020016040519081016040528092919081815260200182805461043e90610b69565b801561048b5780601f106104605761010080835404028352916020019161048b565b820191906000526020600020905b81548152906001019060200180831161046e57829003601f168201915b505050505081565b6000606060006040518060a0016040528088815260200187815260200186815260200185815260200183815250905080600160008981526020019081526020016000206000820151816000015560208201518160010190816104f59190610d46565b506040820151816002015560608201518160030155608082015181600401908051906020019061052692919061057f565b509050506002600081548092919061053d90610e47565b9190505550600192505050949350505050565b6040518060a0016040528060008152602001606081526020016000815260200160008152602001606081525090565b8280548282559060005260206000209081019282156105bb579160200282015b828111156105ba57825182559160200191906001019061059f565b5b5090506105c891906105cc565b5090565b5b808211156105e55760008160009055506001016105cd565b5090565b6000604051905090565b600080fd5b600080fd5b6000819050919050565b610610816105fd565b811461061b57600080fd5b50565b60008135905061062d81610607565b92915050565b600060208284031215610649576106486105f3565b5b60006106578482850161061e565b91505092915050565b610669816105fd565b82525050565b600081519050919050565b600082825260208201905092915050565b60005b838110156106a957808201518184015260208101905061068e565b60008484015250505050565b6000601f19601f8301169050919050565b60006106d18261066f565b6106db818561067a565b93506106eb81856020860161068b565b6106f4816106b5565b840191505092915050565b600081519050919050565b600082825260208201905092915050565b6000819050602082019050919050565b60006107378383610660565b60208301905092915050565b6000602082019050919050565b600061075b826106ff565b610765818561070a565b93506107708361071b565b8060005b838110156107a1578151610788888261072b565b975061079383610743565b925050600181019050610774565b5085935050505092915050565b600060a0830160008301516107c66000860182610660565b50602083015184820360208601526107de82826106c6565b91505060408301516107f36040860182610660565b5060608301516108066060860182610660565b506080830151848203608086015261081e8282610750565b9150508091505092915050565b6000602082019050818103600083015261084581846107ae565b905092915050565b600082825260208201905092915050565b60006108698261066f565b610873818561084d565b935061088381856020860161068b565b61088c816106b5565b840191505092915050565b600060208201905081810360008301526108b1818461085e565b905092915050565b6108c2816105fd565b82525050565b60006080820190506108dd60008301876108b9565b81810360208301526108ef818661085e565b90506108fe60408301856108b9565b61090b60608301846108b9565b95945050505050565b60008060006060848603121561092d5761092c6105f3565b5b600061093b8682870161061e565b935050602061094c8682870161061e565b925050604061095d8682870161061e565b9150509250925092565b600060208201905061097c60008301846108b9565b92915050565b600080fd5b600080fd5b7f4e487b7100000000000000000000000000000000000000000000000000000000600052604160045260246000fd5b6109c4826106b5565b810181811067ffffffffffffffff821117156109e3576109e261098c565b5b80604052505050565b60006109f66105e9565b9050610a0282826109bb565b919050565b600067ffffffffffffffff821115610a2257610a2161098c565b5b610a2b826106b5565b9050602081019050919050565b82818337600083830152505050565b6000610a5a610a5584610a07565b6109ec565b905082815260208101848484011115610a7657610a75610987565b5b610a81848285610a38565b509392505050565b600082601f830112610a9e57610a9d610982565b5b8135610aae848260208601610a47565b91505092915050565b60008060008060808587031215610ad157610ad06105f3565b5b6000610adf8782880161061e565b945050602085013567ffffffffffffffff811115610b0057610aff6105f8565b5b610b0c87828801610a89565b9350506040610b1d8782880161061e565b9250506060610b2e8782880161061e565b91505092959194509250565b7f4e487b7100000000000000000000000000000000000000000000000000000000600052602260045260246000fd5b60006002820490506001821680610b8157607f821691505b602082108103610b9457610b93610b3a565b5b50919050565b60008190508160005260206000209050919050565b60006020601f8301049050919050565b600082821b905092915050565b600060088302610bfc7fffffffffffffffffffffffffffffffffffffffffffffffffffffffffffffffff82610bbf565b610c068683610bbf565b95508019841693508086168417925050509392505050565b6000819050919050565b6000610c43610c3e610c39846105fd565b610c1e565b6105fd565b9050919050565b6000819050919050565b610c5d83610c28565b610c71610c6982610c4a565b848454610bcc565b825550505050565b600090565b610c86610c79565b610c91818484610c54565b505050565b5b81811015610cb557610caa600082610c7e565b600181019050610c97565b5050565b601f821115610cfa57610ccb81610b9a565b610cd484610baf565b81016020851015610ce3578190505b610cf7610cef85610baf565b830182610c96565b50505b505050565b600082821c905092915050565b6000610d1d60001984600802610cff565b1980831691505092915050565b6000610d368383610d0c565b9150826002028217905092915050565b610d4f8261066f565b67ffffffffffffffff811115610d6857610d6761098c565b5b610d728254610b69565b610d7d828285610cb9565b600060209050601f831160018114610db05760008415610d9e578287015190505b610da88582610d2a565b865550610e10565b601f198416610dbe86610b9a565b60005b82811015610de657848901518255600182019150602085019450602081019050610dc1565b86831015610e035784890151610dff601f891682610d0c565b8355505b6001600288020188555050505b505050505050565b7f4e487b7100000000000000000000000000000000000000000000000000000000600052601160045260246000fd5b6000610e52826105fd565b91507fffffffffffffffffffffffffffffffffffffffffffffffffffffffffffffffff8203610e8457610e83610e18565b5b60018201905091905056fe48656c6c6f20576f726c642069732074686520636f6e74656e74206f66207468697320746573742066756e6374696f6ea2646970667358221220f467c67a9457959f9d3e821276109ab66a74731af7b75673b58784871e592aaf64736f6c63430008130033",
  "immutableReferences": {},
  "source": "// SPDX-License-Identifier: MIT\npragma solidity >=0.4.22 <0.9.0;\n\ncontract ProductTracking{\n\n\n    //Test section\n    string public test_variable = \"This is a test variable\";\n\n    function test_function() public pure returns (string memory){\n            return \"Hello World is the content of this test function\";\n    }  \n    //Test section ends\n\n\n\n    struct Product{\n        uint256 id;\n        string name;\n        uint256 price;\n        uint256 manufacturer_id;\n        uint256[] dealers_passed;\n    }\n\n    mapping (uint256 => Product) public products;\n    uint256 total_products = 0;\n    \n\n    function add_product(uint256 _id, string memory _name, uint256 _price, uint256 _manufacturer_id) public returns (uint256)\n    {\n\n        uint256[] memory temp;\n        \n        Product memory new_product = Product(_id, _name, _price, _manufacturer_id, temp);      \n        products[_id] = new_product;\n\n        total_products++;\n\n        return 1;\n    }\n\n    function add_dealer(uint256 product_id, uint256 dealer_id, uint256 manufacturer_id) public returns(uint)\n    {\n        \n        if(products[product_id].manufacturer_id == manufacturer_id)\n        {\n            products[product_id].dealers_passed.push(dealer_id);\n            return 1;\n        }\n        else\n        {\n            return 0;\n        }\n        \n    }\n\n    function get_product_info(uint256 _id) public view returns(Product memory){\n\n        if(_id <= total_products)\n        {\n            Product memory product = products[_id];\n            return product;\n        }\n        else\n        {\n            Product memory temp;\n            return temp;\n        }\n    }\n\n\n    \n}",
  "sourcePath": "/home/deepu/Desktop/Blockchain Project/PRODUCT_TRACKING/contracts/ProductTracking.sol",
  "compiler": {
    "name": "solc",
    "version": "0.8.19+commit.7dd6d404.Emscripten.clang"
  },
  "schemaVersion": "3.4.13",
  "updatedAt": "2023-03-30T16:25:30.699Z",
  "networkType": "ethereum",
  "devdoc": {
    "kind": "dev",
    "methods": {},
    "version": 1
  },
  "userdoc": {
    "kind": "user",
    "methods": {},
    "version": 1
  }
}